:100E040050617373776F72642D00436F7272656300
:100E14007400496E636F72726563740032303234E9
:010E240000CD
:060DB600D2B17F017E00B6
:100DBC00E4FDFCC3ED9FEE6480F8EC648098501465
:100DCC00E4FBFA0BBB00010AEBF44A70F60DBD0014
:040DDC00010C80DFA7
:010DE00022F0
:0C0E2500120E5B7FC87E00120DBC7F0621
:0A0E31008FA0C2B0120DB6C2B122AC
:0A0E5B008FA0D2B0120DB6C2B12272
:100DE1008B178A188919AB17AA18A919120BD6FFE4
:100DF1006010120E5B74012519F519E43518F51808
:030E010080E42268
:100E3B007F01120E317F38120E317F0E120E317F71
:040E4B0080020E31E2
:1008000078087C007D007BFF7A0E79207E007F05D2
:10081000120BB0E4F512F513F51475150075160DED
:10082000120E3B7BFF7A0E7904120DE1E4F511C341
:10083000E5139404E512648094804003020A8F75E6
:1008400090FEE590B4EE21AB14AA15A9168513828B
:100850008512837437120BEF7F37120E250513E5CF
:1008600013700205120208D5E590B4DE20AB14AA7D
:1008700015A9168513828512837438120BEF7F3801
:10088000120E250513E513704C05128048E590B44F
:10089000BE20AB14AA15A91685138285128374395C
:1008A000120BEF7F39120E250513E5137027051281
:1008B0008023E590B47E1EAB14AA15A91685138279
:1008C000851283742F120BEF7F2F120E250513E56F
:1008D00013700205127590FDE590B4ED21AB14AADA
:1008E00015A9168513828512837434120BEF7F3499
:1008F000120E250513E5137002051202095AE59040
:10090000B4DD20AB14AA15A9168513828512837451
:1009100035120BEF7F35120E250513E513703B05DD
:10092000128037E590B4BD20AB14AA15A916851323
:10093000828512837436120BEF7F36120E25051353
:10094000E513701605128012E590B47D0D7F2A1212
:100950000E250513E513700205127590FBE590B4A2
:10096000EB21AB14AA15A916851382851283743165
:10097000120BEF7F31120E250513E51370280512B7
:100980000209F0E590B4DB20AB14AA15A916851373
:10099000828512837432120BEF7F32120E250513FB
:1009A000E513700205128048E590B4BB20AB14AA91
:1009B00015A9168513828512837433120BEF7F33CA
:1009C000120E250513E513702705128023E590B458
:1009D0007B1EAB14AA15A916851382851283742D6C
:1009E000120BEF7F2D120E250513E5137002051271
:1009F0007590F7E590B4E721AB14AA15A9168513F5
:100A0000828512837443120BEF7F43120E25051368
:100A1000E5137028051202082FE590B4D721AB1416
:100A2000AA15A9168513828512837430120BEF7FE5
:100A300030120E250513E5137002051202082FE58A
:100A400090B4B721AB14AA15A91685138285128319
:100A5000743D120BEF7F3D120E250513E513700256
:100A6000051202082FE5906477600302082FAB148B
:100A7000AA15A916851382851283742B120BEF7F9A
:100A80002B120E250513E5137002051202082FE53F
:100A90001364044512600302082F78087C00FDFBF4
:100AA0007A00790D120D99EF701B7FC0120E317B09
:100AB000FF7A0E790E120DE1D2B2C2B37F647E00CE
:100AC000120DBC80CA7FC0120E317BFF7A0E7916E0
:100AD000120DE1C2B2C2B37F647E00120DBC80AFC2
:03000000020E4F9E
:0C0E4F00787FE4F6D8FD758119020800D8
:100AE000E709F608DFFA8046E709F208DFFA803EF8
:100AF00088828C83E709F0A3DFFA8032E309F608E5
:100B0000DFFA8078E309F208DFFA807088828C834C
:100B1000E309F0A3DFFA806489828A83E0A3F60800
:100B2000DFFA805889828A83E0A3F208DFFA804CDA
:100B300080D280FA80C680D4806980F280338010B1
:100B400080A680EA809A80A880DA80E280CA80331A
:100B500089828A83ECFAE493A3C8C582C8CCC58392
:100B6000CCF0A3C8C582C8CCC583CCDFE9DEE78062
:100B70000D89828A83E493A3F608DFF9ECFAA9F0E1
:100B8000EDFB2289828A83ECFAE0A3C8C582C8CC37
:100B9000C583CCF0A3C8C582C8CCC583CCDFEADE50
:100BA000E880DB89828A83E493A3F208DFF980CCB2
:100BB00088F0EF60010E4E60C388F0ED2402B404AB
:100BC0000050B9F582EB2402B4040050AF23234552
:060BD0008223900B30733C
:100BD600BB010689828A83E0225002E722BBFE021D
:090BE600E32289828A83E4932250
:100BEF00F8BB010DE58229F582E5833AF583E8F03C
:100BFF00225006E92582C8F622BBFE05E92582C8E8
:020C0F00F222CF
:100C1100E3F5F009E208B5F06D606B80F3E3F5F000
:100C210009E608B5F060605E80F387F009E608B573
:100C3100F054605280F487F009E208B5F04860464C
:100C410080F488828C8387F009E0A3B5F0386036A0
:100C510080F488828C8387F009E493A3B5F0276040
:100C61002580F388828C83E3F5F009E0A3B5F016C3
:100C7100601480F388828C83E3F5F009E493A3B5D3
:100C8100F004600280F2020D3C808580E7808E8056
:100C9100D2803C8015806C807E809B80B5808B806B
:100CA100A1804F8070803A020D5289828A83ECFACA
:100CB100E493F5F0A3C8C582C8CCC583CCE493A363
:100CC100C8C582C8CCC583CCB5F070606E80E1899F
:100CD100828A83E493F5F0A3E208B5F05E605C805C
:100CE100F289828A83E0F5F0A3E608B5F04D604B06
:100CF10080F389828A83E0F5F0A3E208B5F03C60D5
:100D01003A80F389828A83E493F5F0A3E608B5F08B
:100D11002A602880F2805D89828A83ECFAE493F567
:100D2100F0A3C8C582C8CCC583CCE0A3C8C582C81E
:100D3100CCC583CCB5F004600280E27F00F845F0B9
:100D4100600EE863F0806480D395F01F40027F015C
:100D51002289828A83ECFAE0F5F0A3C8C582C8CC67
:100D6100C583CCE0A3C8C582C8CCC583CCB5F0CBC4
:100D710060C980E389828A83ECFAE0F5F0A3C8C5F3
:100D810082C8CCC583CCE493A3C8C582C8CCC58333
:100D9100CCB5F0A760A580E288F0ED2402B4040090
:100DA1005099F582EB2402B40400508F232345822D
:050DB10023900C8A7381
:00000001FF
