:020000040000FA
:100000000C9462000C948A000C948A000C948A0070
:100010000C948A000C948A000C948A000C948A0038
:100020000C948A000C948A000C948A000C948A0028
:100030000C948A000C948A000C948A000C948A0018
:100040000C9402030C948A000C948A000C948A008D
:100050000C948A000C948A000C948A000C948A00F8
:100060000C948A000C948A000000000024002700F1
:100070002A0000000000250028002B0000000000DE
:1000800023002600290004040404040404040202DA
:100090000202020203030303030301020408102007
:1000A0004080010204081020010204081020000012
:1000B0000008000201000003040700000000000027
:1000C00000003F0411241FBECFEFD8E0DEBFCDBF3C
:1000D00011E0A0E0B1E0EAECF8E002C005900D927A
:1000E000AC36B107D9F721E0ACE6B1E001C01D9212
:1000F000AD38B207E1F710E0C2E6D0E004C02197C6
:10010000FE010E945D04C136D107C9F70E944C036D
:100110000C9463040C940000AF92BF92CF92DF92D4
:10012000EF92FF920F931F93CF93DF936C017B01AC
:100130008B01040F151FEB015E01AE18BF08C0173D
:10014000D10759F06991D601ED91FC910190F081B0
:10015000E02DC6010995892B79F7C501DF91CF9173
:100160001F910F91FF90EF90DF90CF90BF90AF90D5
:100170000895833081F028F4813099F08230A9F01D
:1001800008958730A9F08830C9F08430B1F48091A7
:1001900080008F7D03C0809180008F7780938000E6
:1001A000089584B58F7784BD089584B58F7DFBCF86
:1001B0008091B0008F778093B00008958091B00057
:1001C0008F7DF9CF1F93CF93DF93282F30E0F90174
:1001D000E255FF4F8491F901E656FF4FD491F901A2
:1001E000EA57FF4FC491CC23A9F0162F81110E942A
:1001F000B900EC2FF0E0EE0FFF1FEE58FF4FA59176
:10020000B4918FB7F894EC91111108C0D095DE230A
:10021000DC938FBFDF91CF911F910895DE2BF8CF34
:10022000CF93DF9390E0FC01E656FF4F24918A576D
:100230009F4FFC0184918823D1F090E0880F991F93
:10024000FC01E859FF4FA591B491FC01EE58FF4F16
:10025000C591D491623071F49FB7F8943C91822F8C
:10026000809583238C93E8812E2B28839FBFDF9179
:10027000CF9108958FB7F894EC912E2B2C938FBFCC
:10028000F6CF3FB7F8948091710190917201A091DF
:100290007301B091740126B5A89B05C02F3F19F0DA
:1002A0000196A11DB11D3FBFBA2FA92F982F8827F6
:1002B000BC01CD01620F711D811D911D42E0660FD1
:1002C000771F881F991F4A95D1F708958F929F92A3
:1002D000AF92BF92CF92DF92EF92FF924B015C01FF
:1002E0000E9441016B017C010E9441016C197D0952
:1002F0008E099F09683E734081059105A8F321E0AE
:10030000821A9108A108B10888EEC80E83E0D81EB1
:10031000E11CF11C81149104A104B10429F7FF90A0
:10032000EF90DF90CF90BF90AF909F908F90089507
:10033000089590E080E00895FC0101900020E9F725
:100340003197AF01481B590BBC0185E791E00C9434
:100350008C00CF93DF93EC0160E08E810E94E2007D
:1003600061E08E810E94E20060E08E810E94E200E6
:100370008BE891E00197F1F7DF91CF910895CF924B
:10038000DF92EF92FF920F931F93CF93DF936C0155
:100390007C0187E0E80EF11CD0E0C0E0062F10E001
:1003A000B8010C2E02C0759567950A94E2F761704A
:1003B000F70181917F010E94E2002196C430D105AE
:1003C00079F7C601DF91CF911F910F91FF90EF90C8
:1003D000DF90CF900C94A901CF92DF92EF92FF9221
:1003E0000F931F93CF93DF93EC01F62E642F8C8134
:1003F0000E94E2008D818F3F19F060E00E94E200D0
:100400000F2D10E08F8584FF25C06E0187E0C80E98
:10041000D11CF12CE12CB8010E2C02C0759567950A
:100420000A94E2F76170F60181916F010E94E20087
:10043000FFEFEF1AFF0A88E0E816F10461F7CE013A
:10044000DF91CF911F910F91FF90EF90DF90CF90B0
:100450000C94A901B80184E0759567958A95E1F738
:10046000CE010E94BF016F2DCE01DF91CF911F9170
:100470000F91FF90EF90DF90CF900C94BF0140E080
:10048000682F85E791E00C94EC0181E00E943F0227
:100490008BE39FE10197F1F70895CF93DF938230CB
:1004A00029F490918401986090938401809388014D
:1004B0001092890180E480938A0180E180938B010E
:1004C00080E580938C0161E0809179010E941001A8
:1004D00080917A018F3F19F061E00E94100161E084
:1004E00080917B010E941001C5E7D1E09E01255754
:1004F00031408091840184FD0BC084E090E021961E
:100500002817390744F461E08E810E941001EECF74
:1005100088E090E0F4CF8BE39DE00197F1F760E095
:10052000809179010E94E20060E080917B010E944D
:10053000E20080917A018F3F19F060E00E94E200B2
:100540008091840184FD34C063E085E791E00E94DE
:10055000BF01CBE4D6E4CE010197F1F763E085E774
:1005600091E00E94BF012197F1F763E085E791E0F8
:100570000E94BF0183E592E00197F1F762E085E711
:1005800091E00E94BF018091840180620E943F023D
:1005900084E0809385018CE00E943F020E94450226
:1005A00082E08093860186E0DF91CF910C943F0238
:1005B00080620E943F028BE496E40197F1F78091FC
:1005C000840180620E943F0283E592E00197F1F787
:1005D0008091840180620E943F02D5CF9091880172
:1005E000891710F08FEF890FE82FF0E0EB58FE4FDE
:1005F000848980680C943F0241E00E94EC0181E014
:1006000090E008951F920F920FB60F9211242F932E
:100610003F938F939F93AF93BF9380916D01909180
:100620006E01A0916F01B091700130916C0123E0D7
:10063000230F2D3758F50196A11DB11D20936C0194
:1006400080936D0190936E01A0936F01B093700140
:100650008091710190917201A0917301B091740128
:100660000196A11DB11D8093710190937201A09319
:100670007301B0937401BF91AF919F918F913F919E
:100680002F910F900FBE0F901F90189526E8230F03
:100690000296A11DB11DD2CF789484B5826084BD2D
:1006A00084B5816084BD85B5826085BD85B5816076
:1006B00085BD80916E00816080936E0010928100F4
:1006C00080918100826080938100809181008160AF
:1006D0008093810080918000816080938000809170
:1006E000B10084608093B1008091B00081608093FC
:1006F000B00080917A00846080937A0080917A00C3
:10070000826080937A0080917A00816080937A0081
:1007100080917A00806880937A001092C10082E014
:100720000E944D0262E08EE00E94100161E089E0CB
:100730000E94100161E08AE00E94100161E08BE0FC
:100740000E94100180E00E94EE028CE091E00E9485
:100750009C0181E00E94EE028CE191E00E949C01EC
:1007600060ED77E080E090E00E9466010E94450223
:10077000CCEBD0E008EA10E094E9E92E90E0F92E05
:1007800020E0C22E20E0D22EFE018491F801A49038
:10079000F701B490BB2009F447C081110E94B90051
:1007A000EB2DF0E0EE0FFF1FE458FF4FA591B49141
:1007B0008C91A822C9F160E08AE00E94E20061E029
:1007C0008BE00E94E20061E089E00E94E20068ECB8
:1007D00070E080E090E00E94660160E089E00E94A5
:1007E000E20068EC70E080E090E00E94660180E04A
:1007F0000E94EE028DE291E00E949C0181E00E9445
:10080000EE028EE391E00E949C016CE271E080E0D8
:1008100090E00E9466010E944502C114D10409F4CF
:10082000B3CF0E940000B0CF0E94450280E00E943A
:10083000EE024DE050E06FE471E085E791E00E9448
:100840008C0081E00E94EE024EE050E06DE571E028
:1008500085E791E00E948C006CE271E080E090E01E
:100860000E94660160E089E00E94E20061E08AE0A7
:100870000E94E20060E08BE00E94E200CECFE5E75C
:10088000F1E01382128284E091E09183808382E020
:1008900084838FEF858383E0868384E0878385E08C
:1008A000808786E0818787E0828713861486158695
:1008B0001686178681E00C944D02EE0FFF1F0590FF
:1008C000F491E02D0994F894FFCF00000000FC02A1
:1008D0008C009901980120464952452044455445D1
:1008E00043544F522000202053595354454D202D3E
:1008F0002045494620200020464952452044455481
:10090000454354454420200020414C455254204149
:100910004C4552542021212000202020204E4F20E1
:100920004649524520200020204445544543544523
:06093000442021212000FB
:107E0000112484B714BE81FFF0D085E080938100F7
:107E100082E08093C00088E18093C10086E0809377
:107E2000C20080E18093C4008EE0C9D0259A86E02C
:107E300020E33CEF91E0309385002093840096BBD3
:107E4000B09BFECF1D9AA8958150A9F7CC24DD24C4
:107E500088248394B5E0AB2EA1E19A2EF3E0BF2EE7
:107E6000A2D0813461F49FD0082FAFD0023811F036
:107E7000013811F484E001C083E08DD089C08234E0
:107E800011F484E103C0853419F485E0A6D080C0E4
:107E9000853579F488D0E82EFF2485D0082F10E0AE
:107EA000102F00270E291F29000F111F8ED06801E7
:107EB0006FC0863521F484E090D080E0DECF843638
:107EC00009F040C070D06FD0082F6DD080E0C81688
:107ED00080E7D80618F4F601B7BEE895C0E0D1E017
:107EE00062D089930C17E1F7F0E0CF16F0E7DF06D8
:107EF00018F0F601B7BEE89568D007B600FCFDCFD4
:107F0000A601A0E0B1E02C9130E011968C91119780
:107F100090E0982F8827822B932B1296FA010C0160
:107F200087BEE89511244E5F5F4FF1E0A038BF0790
:107F300051F7F601A7BEE89507B600FCFDCF97BE46
:107F4000E89526C08437B1F42ED02DD0F82E2BD052
:107F50003CD0F601EF2C8F010F5F1F4F84911BD097
:107F6000EA94F801C1F70894C11CD11CFA94CF0C13
:107F7000D11C0EC0853739F428D08EE10CD085E9AC
:107F80000AD08FE07ACF813511F488E018D01DD067
:107F900080E101D065CF982F8091C00085FFFCCF94
:107FA0009093C60008958091C00087FFFCCF809118
:107FB000C00084FD01C0A8958091C6000895E0E648
:107FC000F0E098E1908380830895EDDF803219F02E
:107FD00088E0F5DFFFCF84E1DECF1F93182FE3DFCA
:107FE0001150E9F7F2DF1F91089580E0E8DFEE27F6
:047FF000FF270994CA
:027FFE00040479
:00000001FF
