:100855001208007F0A7E001208B71209877F0A7EF8
:10086500001208B71208007F0A7E001208B71208A6
:10087500DD7F0A7E001208B71208007F0A7E00128B
:1008850008B712099B7F0A7E001208B71208007F7D
:100895000A7E001208B712096F7F0A7E001208B798
:0208A50080AE23
:100800003090093092067E007F0180047E007F00D8
:10081000EF4E701620900820903A12098780F82039
:10082000923220922F12099B80F830910930930662
:100830007E007F0180047E007F00EF4E70162091C5
:10084000082091101208DD80F820930820930512EB
:05085000096F80F82291
:10098700D2A2C2A0C2A5D2A3C2B2D2B01208A7C235
:04099700A10208FBB6
:1008DD00C2A2D2A0C2A1D2A5C2A3C2A4C2B2D2B09A
:0E08ED00C2B1C2B5D2B31208B1C2A40209351D
:10099B00C2A2D2A0C2A5D2A3D2B2C2B01208A7C221
:0409AB00B102091874
:10096F00C2A2D2A0C2A5D2A3C2B2D2B0D2B5C2B3D4
:08097F001208ABC2B4020952D8
:1008A700C2B5D2B3C2A1C2A4C2B1C2B47FE87E03AB
:1008B700E4FDFCC3ED9FEE6480F8EC64809850156E
:1008C700E4FBFA0BBB00010ABA03F8BBE8F50DBD60
:0508D70000010C80DEB1
:0108DC0022F9
:1008FB00C2A2900000D2A17F327E001208B7C2A123
:0C090B001208B7A3E5826406458370E97A
:0109170022BD
:10091800C2B2900000D2B17F327E001208B7C2B1D5
:0C0928001208B7A3E5826406458370E95D
:0109340022A0
:10093500C2A5900000D2A47F327E001208B7C2A4DF
:0C0945001208B7A3E5826406458370E940
:010951002283
:10095200C2B5900000D2B47F327E001208B7C2B492
:0C0962001208B7A3E5826406458370E923
:01096E002266
:030000000209AF43
:0C09AF00787FE4F6D8FD7581070208553A
:00000001FF
